:100BF400C29FD29ED29C758920758DFD758BFDD2C6
:040C04008ED2AC22BE
:100BC400C2B67F02120BDCD2B67F02120BDCC2B6B5
:080BD4007F02120BDCD2B622F5
:100B1A007F60120C4CC2827F40120B8FE4F509AF42
:0F0B2A0009120B8F0509E509C3944040F2D282EE
:010B39002299
:100AD3007FE0120C4CC2827FC0120B8FE4F5091227
:100AE3000BAA74312509F8A6070509E509C3944043
:040AF30040EDD2827E
:010AF70022DC
:0C0C2900120B1A7F1A120C4C2086FD22C0
:0B0C41007F18120C4C2086FD020AD325
:1008FB00120BF47FE37EF57DD87C4312093F120B7C
:10090B00C420B7FD7F01120BDC20B7F5C2B6120C69
:10091B0029D2B6120C41120BC4E4F508E508C394B6
:10092B004050DE74312508F8E6F5993099FDC299EF
:04093B00050880E843
:10086A0012210A24B80500000A2000240000000111
:10087A000000000018D4700944000800484520C050
:10088A00170600000000118781700201400F2AC07C
:10089A000045D281000400210022003F1507000014
:0A08AA000B3784000000000000007E
:0E0AF800900888E4934402FC740193FD7F0F84
:100B06008C208D21C282120B8F00AF21AE20120BDA
:040B160057D282220E
:0E0C1A00C282430780120B8F00120A7AD28228
:010C280022A9
:070AA800E493FC740193FDCF
:040AAF008C168D17FD
:100AB300AD07EDC454F0FE900878E4934EFC740146
:100AC30093FD7F07120B06AD17AC167F08020B06CA
:040A4B008C1E8D1F51
:100A4F00AD077C00ED7E007807C333CE33CED8F9E7
:100A5F00FF900878E4934EFC7401934FFD7F0712CB
:0B0A6F000B06AD1FAC1E7F09020B063A
:100B3A00AD07EDC454F0FE900878E4934EFC7401BE
:0C0B4A0093FD7F07120B067F08120C1AA7
:010B5600227C
:10069C00E4F50D75F002E50DA4246AF582E5F0345D
:1006AC0008F583E493FC740193FDAF0D120B060562
:1006BC000DE50DC3940840DB750D0A75F002E50DD0
:1006CC00A4246AF582E5F03408F583E493FC740104
:1006DC0093FDAF0D120B06050DE50DC3941040DB19
:1006EC00E4F50D75F002E50DA4248AF582E5F034ED
:1006FC0008F583AF0D120AA8050DE50DC394104043
:10070C00E2E4F50D75F002E50DA424AAF582E5F0FE
:10071C003408F583E493FC740193FDAF0D120A4B7E
:09072C00050DE50DC3940540DB49
:0107350022A1
:1003EE00900888E4934408FC7401934402FD7F0F47
:1003FE00120B067F0F120C1A8E148F15E51454086B
:10040E00FEE51554024E70EB7F0E120C1A8E148FF1
:10041E0015EF540FF50DE514131313541FF50EE5D8
:10042E0014C4F854F0C8E515C4540F485401F50F20
:10043E007F0A120B3A8E148F15EF540FF512E51436
:10044E00C4F854F0C8E515C4540F485401F5137D93
:10045E00007C4C7F0C120B067D007CF87F02120A8A
:10046E00AF90088AE49344E0FC740193FDE4FF121C
:10047E000AAF900888E4934410120AFF7F0F120C03
:10048E001A8E148F15E51420E4F2900882E493FC82
:10049E00740193FD7F0C120B0690088E7F02120AD8
:1004AE00A890088AE493FC740193FDE4FF120AAF4E
:1004BE00900888E493FC7401934404FD7F0F120BA3
:1004CE00067F0F120C1A8E148F15E51520E2F27F9F
:1004DE000E120C1A8E148F15E5157805CEC313CE99
:0D04EE0013D8F95407F510E5145401F51169
:0104FB0022DE
:080C4C00C282120B8FD282223A
:10093F008F0C8E0B8D0A8C09D282C283D284D28700
:10094F00D285D2867F70120C4C12069C7F01120B3F
:10095F00DC7F8C7EC57D757C341208B4AF0CAE0B7A
:0A096F00AD0AAC091204FC0203EE0D
:1008B4008F108E0F8D0E8C0DC2827F20120B8FAF86
:1008C40010AE0FAD0EAC0D78181203DB120B8FAF08
:1008D40010AE0FAD0EAC0D78101203DB120B8FAF00
:1008E40010AE0FAD0EAC0D78081203DB120B8FAFF8
:0708F40010120B8FD28222CB
:100B7400E49008789354F7FE74019354CFFDEEFC8F
:0A0B84007F07120B067F09120C1AFE
:010B8E002244
:0804FC008F108E0F8D0E8C0D88
:100504007BCD7ACC794C78411202048F148E138DF2
:10051400128C1112034C8F15AC15E4120318A804A5
:10052400A905AA06AB07AF14AE13AD12AC111200A5
:10053400068F198E188D178C16E4FFFE7D807C477C
:10054400AB19AA18A917A8161200FB12034C8E1A8D
:100554008F1B7F14120C4C900870E493547FF51C8D
:10056400740193F51DAD1DAC1C7F03120B0690089E
:1005740076E493540FF51C740193F51DAD1DAC1C6A
:100584007F06120B06E4FFFE7D577C44AB10AA0FD6
:10059400A90EA80D1202A1900872E493500454EF1E
:1005A40080024410F51C740193F51DAD1DAC1C7F35
:1005B40004120B0690086CE493F51C751D00E51CF1
:1005C400FCE51D4515FD7F01120B06AD1BAC1A7F22
:0C05D40002120B06E4FDFC7F02020A4B41
:0205E0008F2268
:1005E2007F14120C4C90086AE493FE740193FF8E00
:1005F2002354F8F524EE5401F5258F2690087EE465
:1006020093FE740193FF8E2754F3F528EF54BFAC89
:10061200064440FD7F0A120B06E52224F6602224DE
:10062200D8603324CE604A24CE606C24947065ACCA
:1006320023E5244403FDE4FF120B06E52544308044
:1006420010AC23E5244403FDE4FF120B06E5254428
:1006520008FCAD268010AC23E5244403FDE4FF1220
:100662000B06AD26AC25E4FF120B06AD28AC2780A5
:100672001CAC23E5244401FDE4FF120B06AD26ACBD
:1006820025E4FF120B06AC27E5284404FD7F0A127D
:090692000B0680037F01227F00AA
:01069B00223C
:020A19008F2F1D
:100A1B007F14120C4C9008A4E493FCE52F24FFFFE9
:100A2B00E434FF4CFCEFFD7F0D120AAF90089EE4FF
:0F0A3B009354C0FC740193FD7F0A120AAF7F0031
:010A4A002289
:02080D008F302A
:10080F00E530C394004007E530D3940740037F01E0
:10081F00227F14120C4C900872E493FE74019354CF
:10082F00F0FDAC06E53025E0FFE4334CFEEF4DACB8
:10083F00064401FD7F04120AAF7F01120C087F01ED
:10084F00120B3A7E00EF54807807CEC313CE13D825
:0A085F00F94E70047F0180027F0053
:01086900226C
:1007A60074FFF52AF52B7F18120C4C900882E493FF
:1007B60054FEFC740193FD7F0C120B067F0F120C86
:1007C6001AAC06EF4401FD7F0F120B067F0F120CC9
:1007D6001AEF5401F529E52B152BAE2A7002152ABE
:1007E6004E6004E52970E5D3E52B9400E52A9400D4
:1007F600400A7F0C120C1AEFF5298003E4F5297FD5
:0608060014120C4CAF2996
:01080C0022C9
:10073600752CFF74FFF52DF52E90088EE493FC744E
:1007460001934410FD7F02120AAF9008A8E493FCBF
:100756007401934401FD7F0F120AAF7F0F120B3A0B
:100766007E00EF5401FF600DE52E152EAC2D7002B4
:10077600152D4C70E67F0F120B3AEE5403C313FE91
:10078600EF13FFD394BAEE9400400BEF94C6EE94A9
:0F0796000050037F0522AF2C152CEF70AD7F04B0
:0107A5002231
:10097900120736BF04037F01227F14120C4C7D45F8
:100989007C007F08120AAF7D7F7C027F01120AAFCB
:10099900900884E4934404FC740193FD7F0D120BC9
:0609A90006120AF880FEB0
:1009AF007F14120C4C7D457C007F08120AAF7D0529
:1009BF007CFC7F01120AAF120736BF04037F0122AE
:1009CF0090088EE493FC7401934410FD7F02120A89
:0509DF00AF120AF8222E
:1009E4007F14120C4C7D4D7C007F08120AAF7D05EC
:1009F4007C807F01120AAF120736BF04037F0122F5
:100A040090088EE493FC7401934430FD7F02120A33
:050A1400AF120AF822F8
:100BDC00AD071FED6011E4FEEEC3946450F2E4FD2A
:070BEC000DBDF5FC0E80F1C8
:010BF30022DF
:100C0800AD071FED600BE4FEEEC3940C50F20E80AE
:010C1800F7E4
:010C190022B8
:100B8F00E4FEEF30E704D2848002C28400D28300F7
:0A0B9F00C283EF25E0FF0EBE08E858
:010BA9002229
:100B5700E4FDEE30E704D2848002C284D28300C26F
:0C0B670083EF25E0FFEE33FE0DBD10E62D
:010B7300225F
:100BAA00D284E4FEEF25E03084054401FF8001FF92
:090BBA00D28300C2830EBE08EBD9
:010BC300220F
:100A7A00D284E4FBFAED25E030840AFFEC33FCEF84
:100A8A004401FD8004FDEC33FCD28300C2830BBB1E
:0D0A9A0000010AEB64104A70DCAF05AE04E9
:010AA700222C
:100003000203B8E86480F8E933E83360110460F070
:10001300ED33EC337009E8FCE9FDEAFEEBFF220463
:1000230060DED3EB9FEA9EE99DE8C2E78CF0C2F75E
:1000330095F0400CE8CCF8E9CDF9EACEFAEBCFFB2A
:1000430012038385D0F05804700320D5B3E80470FD
:10005300075002B2D50203C292D5EC0460F7E4CC98
:10006300C0E0C398F8603B94186008400DD0E0FBF3
:1000730002039AE4FBFAC9FC8028E830E406E4C9E9
:10008300FBE4CAFCE830E305E4C9CACBFCE8540747
:100093006010F8C3E913F9EA13FAEB13FBEC13FC52
:1000A300D8F130F52FC3E49CFCEF9BFFEE9AFEEDF5
:1000B30099FDD0E0FBEF4E4D4C701222DB0302039F
:1000C300BFEC2CFCEF33FFEE33FEED33FDED30E7F9
:1000D300EB02039AEF2BFFEE3AFEED39FDD0E0FB86
:1000E30050130BBB00030203C2ED13FDEE13FEEF2F
:0800F30013FFEC13FC02039A59
:1000FB00EC4D6011E8497017ED33EC3304600DE4FF
:10010B00FCFFFEFD22E933E8330470F80203B8125A
:10011B00038358046009E4CC24815006285009025B
:10012B0003C22840030203BFC0E0EB4A7044B9800E
:10013B0006D0E0FB0203AEEF4E701CBD8008EBFF58
:10014B00EAFEE9FD80EBE98DF0A4FEE5F00201E4A7
:10015B00E9CDF9EAFEEBFFEF89F0A4FCE5F0CE89DF
:10016B00F0A42EFFE435F0CD89F0A42DFEE435F09C
:10017B008067EF4E7005BD80D780C3EF8BF0A4ACCA
:10018B00F0EE8BF0A42CFCE435F0F8EF8AF0A42C05
:10019B00E5F038FCE433CB8DF0A42CFCE5F03BF818
:1001AB00EE8AF0A42CFCE5F038F8E433CF89F0A408
:1001BB002CFCE5F038CF3400CE89F0A42FFFE5F00E
:1001CB003EFEE433C98DF0A42EFEE5F039CD8AF066
:1001DB00A42FFFE5F03EFEE43DFD33D0E0FB5007DE
:1001EB000BBB000F0203C2EC2CFCEF33FFEE33FE14
:0601FB00ED33FD02039A42
:100201000203C2EC5D046005E8590470030203B8FF
:10021100120383580460F6EC4860F2EC7004FDFEB2
:10022100FF22C860DB2481C85009C39860025006D0
:100231000203BF9850CAF582E9294B4A7005AB8287
:100241000203AE75F0007C1A7880C3EF9BEE9AED45
:1002510099400DC3EF9BFFEE9AFEED99FDE842F048
:10026100DC23ACF0D0E0FFD0E0FED0E0FDAB82209B
:10027100E7101BEB60BAEC2CFCEF33FFEE33FEED25
:1002810033FD02039AE803F830E705C0F075F0008A
:10029100EF2FFFEE33FEED33FD40B830E7C280AA09
:1002A10074F8CC6480CCC86480C8F582046043C310
:1002B100EB9FF5F0EA9E42F0E99D42F0E89C45F0A3
:1002C10060305018E5825FFFE582F42B5582FB50C8
:1002D100210ABA001D09B90019088016E5825BFBE5
:1002E100E582F42F5582FF50090EBE00050DBD00B9
:1002F100010CC3EB9FF5F0EA9E42F0E99D42F0E864
:0D0301009C45F06007CC4820E701B3EC22DA
:10030E0075F020800E75F010800575F0087D007E6A
:10031E00007F003392D530D5031203CDEC3340105D
:10032E00EF33FFEE33FEED33FDEC33FCD5F0ED2273
:0E033E00E5F0247EA2D513CC92E7CDCEFF22AF
:10034C00EDD2E7CD33EC3392D524814006E4FFFEA9
:10035C00FDFC22FCE4CFCECDCC24E0501174FF8008
:10036C00EDC3CC13CCCD13CDCE13CECF13CF0470A5
:07037C00F030D5DE0203CDD5
:10038300E9D2E7C933E833F892D5EDD2E7CD33ECC0
:0703930033FC5002B2D52239
:10039A00EC30E7100FBF000C0EBE00080DBD0004C4
:1003AA000BEB6014A2D5EB13FCED92E7FD2274FF70
:1003BA00FCFDFEFF22E480F8A2D574FF13FC7D80C9
:0303CA00E480EFDD
:03000000020C35BA
:0C0C3500787FE4F6D8FD7581700208FBA2
:0E03CD00C3E49FFFE49EFEE49DFDE49CFC2241
:1003DB00E8600FECC313FCED13FDEE13FEEF13FF00
:0303EB00D8F12224
:00000001FF
