:100B9C00C2B67F02120BB4D2B67F02120BB4C2B62D
:080BAC007F02120BB4D2B62245
:100AB4007F60120C10C2827F40120B4EE4F508E5F1
:100AC400082440FF120B4E0508E508C3944040EF8C
:020AD400D282CC
:010AD60022FD
:100A8F007FE0120C10C2827FC0120B4EE4F50812E9
:100A9F000B6974302508F8A6070508E508C39440CC
:040AAF0040EDD282C2
:010AB3002220
:0C0BED00120AB47F1A120C102086FD22A0
:0B0C05007F18120C102086FD020A8FE1
:100B83007FE37EF57DD87C431208FB120B9C120C8D
:090B930005120B9C120BED80F51C
:10086A0012210A24B80500000A2000240000000111
:10087A000000000018D4700944000800484520C050
:10088A00170600000000118781700201400F2AC07C
:10089A000045D281000400210022003F1507000014
:0A08AA000B3784000000000000007E
:0E0AD700900888E4934402FC740193FD7F0FA5
:100AE5008C1F8D20C282120B4E00AF20AE1F120B41
:040AF50016D2822271
:0E0BDE00C282430780120B4E00120A36D282EA
:010BEC0022E6
:070A6400E493FC740193FD13
:040A6B008C158D1643
:100A6F00AD07EDC454F0FE900878E4934EFC74018A
:100A7F0093FD7F07120AE5AD16AC157F08020AE554
:040A07008C1D8D1E97
:100A0B00AD077C00ED7E007807C333CE33CED8F92B
:100A1B00FF900878E4934EFC7401934FFD7F07120F
:0B0A2B000AE5AD1EAC1D7F09020AE5C4
:100AF900AD07EDC454F0FE900878E4934EFC740100
:0C0B090093FD7F07120AE57F08120BDE47
:010B150022BD
:10069C00E4F50C75F002E50CA4246AF582E5F0345F
:1006AC0008F583E493FC740193FDAF0C120AE50585
:1006BC000CE50CC3940840DB750C0A75F002E50CD4
:1006CC00A4246AF582E5F03408F583E493FC740104
:1006DC0093FDAF0C120AE5050CE50CC3941040DB3E
:1006EC00E4F50C75F002E50CA4248AF582E5F034EF
:1006FC0008F583AF0C120A64050CE50CC39410408A
:10070C00E2E4F50C75F002E50CA424AAF582E5F000
:10071C003408F583E493FC740193FDAF0C120A07C3
:09072C00050CE50CC3940540DB4B
:0107350022A1
:1003EE00900888E4934408FC7401934402FD7F0F47
:1003FE00120AE57F0F120BDE8E138F14E5135408CD
:10040E00FEE51454024E70EB7F0E120BDE8E138F30
:10041E0014EF540FF50CE513131313541FF50DE5DC
:10042E0013C4F854F0C8E514C4540F485401F50E23
:10043E007F0A120AF98E138F14EF540FF511E5137C
:10044E00C4F854F0C8E514C4540F485401F5127D95
:10045E00007C4C7F0C120AE57D007CF87F02120AAC
:10046E006B90088AE49344E0FC740193FDE4FF1260
:10047E000A6B900888E4934410120ADE7F0F120B69
:10048E00DE8E138F14E51320E4F2900882E493FCC1
:10049E00740193FD7F0C120AE590088E7F02120AFA
:1004AE006490088AE493FC740193FDE4FF120A6BD6
:1004BE00900888E493FC7401934404FD7F0F120AA4
:1004CE00E57F0F120BDE8E138F14E51420E2F27F00
:1004DE000E120BDE8E138F14E5147805CEC313CED9
:0D04EE0013D8F95407F50FE5135401F5106C
:0104FB0022DE
:080C1000C282120B4ED28222B7
:1008FB008F0B8E0A8D098C08D282C283D284D28749
:10090B00D285D2867F70120C1012069C7F01120BBF
:10091B00B47F8C7EC57D757C341208B4AF0BAE0AE8
:0A092B00AD09AC081204FC0203EE53
:1008B4008F0F8E0E8D0D8C0CC2827F20120B4EAFCB
:1008C4000FAE0EAD0DAC0C78181203DB120B4EAF4D
:1008D4000FAE0EAD0DAC0C78101203DB120B4EAF45
:1008E4000FAE0EAD0DAC0C78081203DB120B4EAF3D
:0708F4000F120B4ED282220D
:100B3300E49008789354F7FE74019354CFFDEEFCD0
:0A0B43007F07120AE57F09120BDE9E
:010B4D002285
:0804FC008F0F8E0E8D0D8C0C8C
:100504007BCD7ACC794C78411202048F138E128DF4
:10051400118C1012034C8F14AC14E4120318A804A9
:10052400A905AA06AB07AF13AE12AD11AC101200A9
:10053400068F188E178D168C15E4FFFE7D807C4780
:10054400AB18AA17A916A8151200FB12034C8E1992
:100554008F1A7F14120C10900870E493547FF51BCB
:10056400740193F51CAD1CAC1B7F03120AE59008C3
:1005740076E493540FF51B740193F51CAD1CAC1B6E
:100584007F06120AE5E4FFFE7D577C44AB0FAA0EFA
:10059400A90DA80C1202A1900872E493500454EF20
:1005A40080024410F51B740193F51CAD1CAC1B7F39
:1005B40004120AE590086CE493F51B751C00E51B16
:1005C400FCE51C4514FD7F01120AE5AD1AAC197F48
:0C05D40002120AE5E4FDFC7F02020A07A7
:0205E0008F2169
:1005E2007F14120C1090086AE493FE740193FF8E3C
:1005F2002254F8F523EE5401F5248F2590087EE469
:1006020093FE740193FF8E2654F3F527EF54BFAC8B
:10061200064440FD7F0A120AE5E52124F660222401
:10062200D8603324CE604A24CE606C24947065ACCA
:1006320022E5234403FDE4FF120AE5E52444308069
:1006420010AC22E5234403FDE4FF120AE5E524444D
:1006520008FCAD258010AC22E5234403FDE4FF1223
:100662000AE5AD25AC24E4FF120AE5AD27AC2680ED
:100672001CAC22E5234401FDE4FF120AE5AD25ACE2
:1006820024E4FF120AE5AC26E5274404FD7F0A12A2
:090692000AE580037F01227F00CC
:01069B00223C
:0209D5008F2E63
:1009D7007F14120C109008A4E493FCE52E24FFFF6B
:1009E700E434FF4CFCEFFD7F0D120A6B90089EE488
:0F09F7009354C0FC740193FD7F0A120A6B7F00BA
:010A060022CD
:02080D008F2F2B
:10080F00E52FC394004007E52FD3940740037F01E2
:10081F00227F14120C10900872E493FE740193540B
:10082F00F0FDAC06E52F25E0FFE4334CFEEF4DACB9
:10083F00064401FD7F04120A6B7F01120BCC7F016E
:10084F00120AF97E00EF54807807CEC313CE13D867
:0A085F00F94E70047F0180027F0053
:01086900226C
:1007A60074FFF529F52A7F18120C10900882E4933D
:1007B60054FEFC740193FD7F0C120AE57F0F120BA9
:1007C600DEAC06EF4401FD7F0F120AE57F0F120B28
:1007D600DEEF5401F528E52A152AAE2970021529FF
:1007E6004E6004E52870E5D3E52A9400E5299400D7
:1007F600400A7F0C120BDEEFF5288003E4F5287F14
:0608060014120C10AF28D3
:01080C0022C9
:10073600752BFF74FFF52CF52D90088EE493FC7451
:1007460001934410FD7F02120A6B9008A8E493FC03
:100756007401934401FD7F0F120A6B7F0F120AF991
:100766007E00EF5401FF600DE52D152DAC2C7002B7
:10077600152C4C70E67F0F120AF9EE5403C313FED4
:10078600EF13FFD394BAEE9400400BEF94C6EE94A9
:0F0796000050037F0522AF2B152BEF70AD7F04B2
:0107A5002231
:10093500120736BF04037F01227F14120C107D4578
:100945007C007F08120A6B7D7F7C027F01120A6B97
:10095500900884E4934404FC740193FD7F0D120A0E
:06096500E5120AD780FE36
:10096B007F14120C107D457C007F08120A6B7D05ED
:10097B007CFC7F01120A6B120736BF04037F012236
:10098B0090088EE493FC7401934410FD7F02120ACD
:05099B006B120AD722D7
:1009A0007F14120C107D4D7C007F08120A6B7D05B0
:1009B0007C807F01120A6B120736BF04037F01227D
:1009C00090088EE493FC7401934430FD7F02120A78
:0509D0006B120AD722A2
:100BB400AD071FED6011E4FEEEC3946450F2E4FD52
:070BC4000DBDF5FC0E80F1F0
:010BCB002207
:100BCC00AD071FED600BE4FEEEC3940C50F20E80EB
:010BDC00F721
:010BDD0022F5
:100B4E00E4FEEF30E704D2848002C28400D2830038
:0A0B5E00C283EF25E0FF0EBE08E899
:010B6800226A
:100B1600E4FDEE30E704D2848002C284D28300C2B0
:0C0B260083EF25E0FFEE33FE0DBD10E66E
:010B320022A0
:100B6900D284E4FEEF25E03084054401FF8001FFD3
:090B7900D28300C2830EBE08EB1A
:010B82002250
:100A3600D284E4FBFAED25E030840AFFEC33FCEFC8
:100A46004401FD8004FDEC33FCD28300C2830BBB62
:0D0A560000010AEB64104A70DCAF05AE042D
:010A63002270
:100003000203B8E86480F8E933E83360110460F070
:10001300ED33EC337009E8FCE9FDEAFEEBFF220463
:1000230060DED3EB9FEA9EE99DE8C2E78CF0C2F75E
:1000330095F0400CE8CCF8E9CDF9EACEFAEBCFFB2A
:1000430012038385D0F05804700320D5B3E80470FD
:10005300075002B2D50203C292D5EC0460F7E4CC98
:10006300C0E0C398F8603B94186008400DD0E0FBF3
:1000730002039AE4FBFAC9FC8028E830E406E4C9E9
:10008300FBE4CAFCE830E305E4C9CACBFCE8540747
:100093006010F8C3E913F9EA13FAEB13FBEC13FC52
:1000A300D8F130F52FC3E49CFCEF9BFFEE9AFEEDF5
:1000B30099FDD0E0FBEF4E4D4C701222DB0302039F
:1000C300BFEC2CFCEF33FFEE33FEED33FDED30E7F9
:1000D300EB02039AEF2BFFEE3AFEED39FDD0E0FB86
:1000E30050130BBB00030203C2ED13FDEE13FEEF2F
:0800F30013FFEC13FC02039A59
:1000FB00EC4D6011E8497017ED33EC3304600DE4FF
:10010B00FCFFFEFD22E933E8330470F80203B8125A
:10011B00038358046009E4CC24815006285009025B
:10012B0003C22840030203BFC0E0EB4A7044B9800E
:10013B0006D0E0FB0203AEEF4E701CBD8008EBFF58
:10014B00EAFEE9FD80EBE98DF0A4FEE5F00201E4A7
:10015B00E9CDF9EAFEEBFFEF89F0A4FCE5F0CE89DF
:10016B00F0A42EFFE435F0CD89F0A42DFEE435F09C
:10017B008067EF4E7005BD80D780C3EF8BF0A4ACCA
:10018B00F0EE8BF0A42CFCE435F0F8EF8AF0A42C05
:10019B00E5F038FCE433CB8DF0A42CFCE5F03BF818
:1001AB00EE8AF0A42CFCE5F038F8E433CF89F0A408
:1001BB002CFCE5F038CF3400CE89F0A42FFFE5F00E
:1001CB003EFEE433C98DF0A42EFEE5F039CD8AF066
:1001DB00A42FFFE5F03EFEE43DFD33D0E0FB5007DE
:1001EB000BBB000F0203C2EC2CFCEF33FFEE33FE14
:0601FB00ED33FD02039A42
:100201000203C2EC5D046005E8590470030203B8FF
:10021100120383580460F6EC4860F2EC7004FDFEB2
:10022100FF22C860DB2481C85009C39860025006D0
:100231000203BF9850CAF582E9294B4A7005AB8287
:100241000203AE75F0007C1A7880C3EF9BEE9AED45
:1002510099400DC3EF9BFFEE9AFEED99FDE842F048
:10026100DC23ACF0D0E0FFD0E0FED0E0FDAB82209B
:10027100E7101BEB60BAEC2CFCEF33FFEE33FEED25
:1002810033FD02039AE803F830E705C0F075F0008A
:10029100EF2FFFEE33FEED33FD40B830E7C280AA09
:1002A10074F8CC6480CCC86480C8F582046043C310
:1002B100EB9FF5F0EA9E42F0E99D42F0E89C45F0A3
:1002C10060305018E5825FFFE582F42B5582FB50C8
:1002D100210ABA001D09B90019088016E5825BFBE5
:1002E100E582F42F5582FF50090EBE00050DBD00B9
:1002F100010CC3EB9FF5F0EA9E42F0E99D42F0E864
:0D0301009C45F06007CC4820E701B3EC22DA
:10030E0075F020800E75F010800575F0087D007E6A
:10031E00007F003392D530D5031203CDEC3340105D
:10032E00EF33FFEE33FEED33FDEC33FCD5F0ED2273
:0E033E00E5F0247EA2D513CC92E7CDCEFF22AF
:10034C00EDD2E7CD33EC3392D524814006E4FFFEA9
:10035C00FDFC22FCE4CFCECDCC24E0501174FF8008
:10036C00EDC3CC13CCCD13CDCE13CECF13CF0470A5
:07037C00F030D5DE0203CDD5
:10038300E9D2E7C933E833F892D5EDD2E7CD33ECC0
:0703930033FC5002B2D52239
:10039A00EC30E7100FBF000C0EBE00080DBD0004C4
:1003AA000BEB6014A2D5EB13FCED92E7FD2274FF70
:1003BA00FCFDFEFF22E480F8A2D574FF13FC7D80C9
:0303CA00E480EFDD
:03000000020BF9F7
:0C0BF900787FE4F6D8FD75816F020B8355
:0E03CD00C3E49FFFE49EFEE49DFDE49CFC2241
:1003DB00E8600FECC313FCED13FDEE13FEEF13FF00
:0303EB00D8F12224
:00000001FF
